:0D00030000000000000000000000000000F0
:0608110001450001460054
:100721008F2C8E2B8D2A8C29759850438920AB2CC8
:10073100AA2BA92AA829E47F807E70FDFC1202025F
:0E074100EFF404F58DF58B43884043A8902219
:0A083400E54570FC8F99754501221F
:060690008B3C8A3D893E0F
:10069600E4F53FE53FC39D5043ED14FFE53FC39F9F
:1006A6005022AB3CAA3DA93E853F827583001201CC
:1006B6001CFFED75830024FFF582E58334FFF58387
:1006C600EF120149AB3CAA3DA93EAF3F053F8F82E1
:0C06D60075830012011CFF12083480B76D
:0106E20022F5
:0805C8008B298A2A892B8D2C56
:1005D000782E7C007D007BFF7A0079037E007F0D02
:1005E0001200F6E4FF0F242EF8765A0F742E240121
:1005F000F8765A0F742E2402F8A62D0F742E2403B9
:10060000F8A62CE4FEEEC3952C501BAB29AA2AA910
:100610002B8E8275830012011CFDAC070F742E2CEB
:10062000F8A6050E80DF7B007A00792EE52C2405E4
:04063000FD02069031
:08041A008B298A2A892B8D2C05
:10042200E4F53BFDE52C75F002A42405FFE435F06C
:10043200FE7B007A00792E120294AF3B053B742EAC
:100442002FF8765AAF3B053B742E2FF8765AAF3B06
:10045200053B742E2FF8A62DE52C25E0FFAE3B05BB
:100462003B742E2EF8A607E4FDEDC3952C503BAB52
:1004720029AA2AA92B75F002EDA4F58285F0831230
:10048200018EE5F0FFAE3B053B742E2EF8A60775F4
:10049200F002EDA4F58285F08312018EFFAE3B05DA
:1004A2003B742E2EF8A6070D80BF7B007A00792EB2
:0A04B200E52C25E02405FD0206906C
:0B08170001440001400003410000000C
:03001300020021C7
:0100210032AC
:030023000206349E
:0D063400C0E0C0D075D000C000C006C007F7
:10064100E4309904C299F545309839AE40054074BB
:10065100412EF8A699C298E541B4A503D38001C300
:100661004003754000E540B4031AE5412542B54316
:1006710010E542B4BB03754601E542B4510375462A
:0406810000754000C0
:0B068500D007D006D000D0D0D0E0326B
:030010008F2F220D
:10077600D2B77F01120010D2B612001020B7021FA6
:1007860022C2B77F0112001030B7021F22C2B67F05
:05079600011200102219
:10082300C2B7C2B67F01120010D2B6120010D2B7FF
:0108330022A2
:1007FC00BF0104D2B78002C2B7D2B67F011200107B
:05080C00C2B60200105D
:1007C000E4FFD2B7D2B630B7040FBF02F930B70595
:0F07D000C2B67F00227F01120010C2B6120010C5
:0107DF0022F7
:02079B00AE07A7
:10079D00C2B6E4FDEE30E704D2B78002C2B7D2B6DE
:1007AD007F01120010C2B6120010EE25E0FE0DBD45
:0207BD0008E250
:0107BF002217
:10074F00E4FED2B77F01120010FDEE25E0FED2B617
:10075F0030B7034306017F01120010C2B61200101A
:06076F000DBD08E6AF0617
:010775002261
:1006E300AE07AC03AB05120776EF70028025AF06A9
:1006F30012079B1207C0EF70028018AF0312079B0B
:100703001207C0EF7002800BAF0412079B1207C0E1
:0E071300EF7005120823FF221208237F012237
:100548008D2A8B2B8A2C892DAC07120776EF700227
:10055800802EAF0412079B1207C0EF70028021AFF4
:100568002A12079B1207C0EF70028014120776EF59
:100578007002800CEC04FF12079B1207C0EF700595
:10058800120823FF22E52E14601E12074FAB2B051D
:100598002DE52DAA2C7002052C14F9EF12017CE42C
:1005A800FF1207FC152E80DD12074FAB2BAA2CA9D2
:1005B8002DEF12017C7F011207FC1208237F012214
:1007E0000000000000000000000000000000000009
:0C07F000000000000000000000000000FD
:0B001600EF1FAC0670011E4C70F622BC
:1002C00078087C007D007BFF7A0779E07E007F095B
:1002D0001200F678117C007D007BFF7A0779E97EB9
:1002E000007F081200F678197C007D007BFF7A07FA
:1002F00079F17E007F081200F678217C007D007B7A
:10030000FF7A0779F97E007F031200F6E4F524F501
:1003100025F526F527F5287F807E25FDFC1207218F
:10032000E54660030203FBFB7A007908752E08FDA1
:100330007FB4120548EF6034E508FEE5098E19F533
:100340001A8E11F512E50AFEE50B8E1BF51C8E13B5
:10035000F514E50CFEE50D8E1DF51E8E15F516E562
:100360000EFEE50F8E1FF5208E17F5187B007A0024
:100370007911752D157D0412041A7B007A00790815
:10038000752E047D087FB4120548EF601AE508FE5B
:10039000E5098E26F5278E11F512E50AFEE50B8E8E
:1003A00024F5258E13F5147B007A007908752E014B
:1003B0007D0F7FB4120548EF6009AF088F287515CF
:1003C000008F167B007A007911752D257D031204AC
:1003D0001A7B007A007908752E037D0C7FB4120514
:1003E00048EF6009850821850922850A237B007A68
:1003F000007908752D457D031205C87F887E13128C
:100400000016E546640160030203207B317D107F06
:0A041000B41206E375460302032050
:030000000204BC3B
:0C04BC00787FE4F6D8FD75814602050348
:10002600E709F608DFFA8046E709F208DFFA803EBC
:1000360088828C83E709F0A3DFFA8032E309F608A9
:10004600DFFA8078E309F208DFFA807088828C8311
:10005600E309F0A3DFFA806489828A83E0A3F608C5
:10006600DFFA805889828A83E0A3F208DFFA804C9F
:1000760080D280FA80C680D4806980F28033801076
:1000860080A680EA809A80A880DA80E280CA8033DF
:1000960089828A83ECFAE493A3C8C582C8CCC58357
:1000A600CCF0A3C8C582C8CCC583CCDFE9DEE78027
:1000B6000D89828A83E493A3F608DFF9ECFAA9F0A6
:1000C600EDFB2289828A83ECFAE0A3C8C582C8CCFC
:1000D600C583CCF0A3C8C582C8CCC583CCDFEADE15
:1000E600E880DB89828A83E493A3F208DFF980CC77
:1000F60088F0EF60010E4E60C388F0ED2402B40470
:100106000050B9F582EB2402B4040050AF23234516
:06011600822390007673C5
:10011C00BB010CE58229F582E5833AF583E0225098
:10012C0006E92582F8E622BBFE06E92582F8E222E2
:0D013C00E58229F582E5833AF583E49322FC
:10014900BB010FF8E58229F582E5833AF583E028BA
:10015900F0225009C58229F8E58226F622BBFE095C
:10016900C58229F8E22582F222F8EA2583F583E996
:03017900932822A6
:10017C00BB010689828A83F0225002F722BBFE0162
:02018C00F3225C
:10018E00BB0110E58229F582E5833AF583E0F5F0AF
:10019E00A3E0225009E92582F886F008E622BBFE8C
:1001AE000AE92582F8E2F5F008E222E5832AF583D2
:0801BE00E993F5F0A3E9932297
:1001C60075F008758200EF2FFFEE33FECD33CDCCF0
:1001D60033CCC58233C5829BED9AEC99E582984073
:1001E6000CF582EE9BFEED9AFDEC99FC0FD5F0D650
:1001F600E4CEFBE4CDFAE4CCF9A88222B800C1B97A
:100206000059BA002DEC8BF084CFCECDFCE5F0CBB7
:10021600F97818EF2FFFEE33FEED33FDEC33FCEBF0
:1002260033FB10D703994004EB99FB0FD8E5E4F9AB
:10023600FA227818EF2FFFEE33FEED33FDEC33FC98
:10024600C933C910D7059BE99A4007EC9BFCE99A8C
:10025600F90FD8E0E4C9FAE4CCFB2275F010EF2FD1
:10026600FFEE33FEED33FDCC33CCC833C810D707D1
:100276009BEC9AE899400AED9BFDEC9AFCE899F80C
:0E0286000FD5F0DAE4CDFBE4CCFAE4C8F9229F
:10029400EF4E6012EF60010EEDBB010B89828A8381
:1002A400F0A3DFFCDEFA2289F05007F709DFFCA98E
:0C02B400F022BBFEFCF309DFFCA9F022E5
:1004C8000202C0E493A3F8E493A34003F68001F288
:1004D80008DFF48029E493A3F85407240CC8C33335
:1004E800C4540F4420C8834004F456800146F6DF04
:1004F800E4800B0102040810204080900811E47E7B
:10050800019360BCA3FF543F30E509541FFEE493F8
:10051800A360010ECF54C025E060A840B8E493A3BF
:10052800FAE493A3F8E493A3C8C582C8CAC583CAEA
:10053800F0A3C8C582C8CAC583CADFE9DEE780BEA2
:0108220000D5
:00000001FF
