:06000D00000000000000ED
:0205E1008F0E7B
:1005E300780F7C007D007BFF7A00790D7E007F030E
:1005F3001200F6750FA5850E107B007A00790F7D2A
:040603000302056089
:10047D00E4F509F50A780B7C00FD7BFF7A00791015
:10048D00FE7F031200F67F807E257D007C00120525
:10049D00B37F011205E1E54860FCE4F509F50AE5D5
:1004AD004C2404FFE433FEC3E50A9FEE6480F87428
:1004BD008098500E7449250AF8E62509F509050AB4
:1004CD0080DD7449250AF8E6B50917854D0B854E73
:1004DD000C854F0D7B007A00794D7512457D031209
:0704ED0004F4E4F54880AFC0
:0F060700015A00015200075300000000000000DC
:03001300020016D2
:0100160032B7
:0300230002035085
:10035000C0E0C0F0C083C082C0D075D000C000C073
:0D03600001C002C003C004C005C006C007F4
:10036D00750800309905C29975510030985BAF52F0
:10037D00055274532FF8A699C298E553645A600339
:10038D00755200E552B40209E554645A6003755282
:10039D0000E552D394034031E5562405FFE433FEC6
:1003AD00E552B50724E4B50620E55524BB7017E5E5
:1003BD0048701378497C00FDFB7A007953FE7F0865
:0903CD001200F67548017552009A
:1003D600D007D006D005D004D003D002D001D0007B
:0B03E600D0D0D082D083D0F0D0E03225
:1006270000000000000000000000000000000000C3
:0E0637000000000000000000000000000000B5
:1006160001510001480008490000000000000000E8
:1005B3008F118E108D0F8C0E759850438920AB11BF
:1005C300AA10A90FA80EE47F807E70FDFC1201F033
:0E05D300EFF404F58DF58B43884043A8902289
:0A000300E55170FC8F997551012240
:060560008B318A32893361
:10056600E4F534E534C39D5043ED14FFE534C39FF1
:100576005022AB31AA32A933853482758300120129
:100586001CFFED75830024FFF582E58334FFF583B8
:10059600EF120149AB31AA32A933AF3405348F8249
:0C05A60075830012011CFF12000380B7D7
:0105B2002226
:0804F4008B0E8A0F89108D1197
:1004FC0078137C007D007BFF7A0679277E007F1EB7
:10050C001200F6E4FF0F2413F8765A0F741324012B
:10051C00F8765A0F74132402F8A6120F74132403DE
:10052C00F8A611E4FEEEC39511501BAB0EAA0FA951
:10053C00108E8275830012011CFDAC070F74132CF6
:10054C00F8A6050E80DF7B007A007913E5112405EF
:04055C00FD02056037
:0802AE008B358A3689378D3843
:1002B600E4F547FDE53875F002A42405FFE435F0C2
:1002C600FE7B007A00793A120282AF470547743AFC
:1002D6002FF8765AAF470547743A2FF8765AAF4744
:1002E6000547743A2FF8A639E53825E0FFAE4705ED
:1002F60047743A2EF8A607E4FDEDC39538503BAB9C
:1003060035AA36A93775F002EDA4F58285F0831279
:10031600017CE5F0FFAE470547743A2EF8A607754F
:10032600F002EDA4F58285F08312017CFFAE47054D
:1003360047743A2EF8A6070D80BF7B007A00793AFB
:0A034600E53825E02405FD020560FE
:030000000203F107
:0C03F100787FE4F6D8FD75815A020438CC
:10002600E709F608DFFA8046E709F208DFFA803EBC
:1000360088828C83E709F0A3DFFA8032E309F608A9
:10004600DFFA8078E309F208DFFA807088828C8311
:10005600E309F0A3DFFA806489828A83E0A3F608C5
:10006600DFFA805889828A83E0A3F208DFFA804C9F
:1000760080D280FA80C680D4806980F28033801076
:1000860080A680EA809A80A880DA80E280CA8033DF
:1000960089828A83ECFAE493A3C8C582C8CCC58357
:1000A600CCF0A3C8C582C8CCC583CCDFE9DEE78027
:1000B6000D89828A83E493A3F608DFF9ECFAA9F0A6
:1000C600EDFB2289828A83ECFAE0A3C8C582C8CCFC
:1000D600C583CCF0A3C8C582C8CCC583CCDFEADE15
:1000E600E880DB89828A83E493A3F208DFF980CC77
:1000F60088F0EF60010E4E60C388F0ED2402B40470
:100106000050B9F582EB2402B4040050AF23234516
:06011600822390007673C5
:10011C00BB010CE58229F582E5833AF583E0225098
:10012C0006E92582F8E622BBFE06E92582F8E222E2
:0D013C00E58229F582E5833AF583E49322FC
:10014900BB010FF8E58229F582E5833AF583E028BA
:10015900F0225009C58229F8E58226F622BBFE095C
:10016900C58229F8E22582F222F8EA2583F583E996
:03017900932822A6
:10017C00BB0110E58229F582E5833AF583E0F5F0C1
:10018C00A3E0225009E92582F886F008E622BBFE9E
:10019C000AE92582F8E2F5F008E222E5832AF583E4
:0801AC00E993F5F0A3E99322A9
:1001B40075F008758200EF2FFFEE33FECD33CDCC02
:1001C40033CCC58233C5829BED9AEC99E582984085
:1001D4000CF582EE9BFEED9AFDEC99FC0FD5F0D662
:1001E400E4CEFBE4CDFAE4CCF9A88222B800C1B98C
:1001F4000059BA002DEC8BF084CFCECDFCE5F0CBCA
:10020400F97818EF2FFFEE33FEED33FDEC33FCEB02
:1002140033FB10D703994004EB99FB0FD8E5E4F9BD
:10022400FA227818EF2FFFEE33FEED33FDEC33FCAA
:10023400C933C910D7059BE99A4007EC9BFCE99A9E
:10024400F90FD8E0E4C9FAE4CCFB2275F010EF2FE3
:10025400FFEE33FEED33FDCC33CCC833C810D707E3
:100264009BEC9AE899400AED9BFDEC9AFCE899F81E
:0E0274000FD5F0DAE4CDFBE4CCFAE4C8F922B1
:10028200EF4E6012EF60010EEDBB010B89828A8393
:10029200F0A3DFFCDEFA2289F05007F709DFFCA9A0
:0C02A200F022BBFEFCF309DFFCA9F022F7
:1003FD0002047DE493A3F8E493A34003F68001F295
:10040D0008DFF48029E493A3F85407240CC8C33300
:10041D00C4540F4420C8834004F456800146F6DFCF
:10042D00E4800B0102040810204080900607E47E52
:10043D00019360BCA3FF543F30E509541FFEE493C4
:10044D00A360010ECF54C025E060A840B8E493A38B
:10045D00FAE493A3F8E493A3C8C582C8CAC583CAB6
:10046D00F0A3C8C582C8CAC583CADFE9DEE780BE6E
:0106260000D3
:00000001FF
